{
  "contractName": "Greeter",
  "abi": [
    {
      "anonymous": false,
      "inputs": [
        {
          "indexed": true,
          "internalType": "address",
          "name": "writer",
          "type": "address"
        },
        {
          "indexed": false,
          "internalType": "string",
          "name": "oldGreeting",
          "type": "string"
        },
        {
          "indexed": false,
          "internalType": "string",
          "name": "newGreeting",
          "type": "string"
        }
      ],
      "name": "GreetingUpdated",
      "type": "event"
    },
    {
      "anonymous": false,
      "inputs": [
        {
          "indexed": true,
          "internalType": "address",
          "name": "previousOwner",
          "type": "address"
        },
        {
          "indexed": true,
          "internalType": "address",
          "name": "newOwner",
          "type": "address"
        }
      ],
      "name": "OwnershipTransferred",
      "type": "event"
    },
    {
      "stateMutability": "nonpayable",
      "type": "fallback"
    },
    {
      "inputs": [],
      "name": "owner",
      "outputs": [
        {
          "internalType": "address",
          "name": "",
          "type": "address"
        }
      ],
      "stateMutability": "view",
      "type": "function"
    },
    {
      "inputs": [],
      "name": "renounceOwnership",
      "outputs": [],
      "stateMutability": "nonpayable",
      "type": "function"
    },
    {
      "inputs": [
        {
          "internalType": "address",
          "name": "newOwner",
          "type": "address"
        }
      ],
      "name": "transferOwnership",
      "outputs": [],
      "stateMutability": "nonpayable",
      "type": "function"
    },
    {
      "inputs": [],
      "name": "greet",
      "outputs": [
        {
          "internalType": "string",
          "name": "",
          "type": "string"
        }
      ],
      "stateMutability": "view",
      "type": "function"
    },
    {
      "inputs": [
        {
          "internalType": "string",
          "name": "greeting",
          "type": "string"
        }
      ],
      "name": "setGreeting",
      "outputs": [],
      "stateMutability": "nonpayable",
      "type": "function"
    },
    {
      "inputs": [
        {
          "internalType": "address",
          "name": "a",
          "type": "address"
        }
      ],
      "name": "isContract",
      "outputs": [
        {
          "internalType": "bool",
          "name": "",
          "type": "bool"
        }
      ],
      "stateMutability": "view",
      "type": "function"
    }
  ],
  "bytecode": "0x60806040526040518060400160405280600d81526020017f48656c6c6f2c20576f726c6421000000000000000000000000000000000000008152506001908051906020019061004f92919061014a565b5034801561005c57600080fd5b5061007961006e61007e60201b60201c565b61008660201b60201c565b61024e565b600033905090565b60008060009054906101000a900473ffffffffffffffffffffffffffffffffffffffff169050816000806101000a81548173ffffffffffffffffffffffffffffffffffffffff021916908373ffffffffffffffffffffffffffffffffffffffff1602179055508173ffffffffffffffffffffffffffffffffffffffff168173ffffffffffffffffffffffffffffffffffffffff167f8be0079c531659141344cd1fd0a4f28419497f9722a3daafe3b4186f6b6457e060405160405180910390a35050565b8280546101569061021c565b90600052602060002090601f01602090048101928261017857600085556101bf565b82601f1061019157805160ff19168380011785556101bf565b828001600101855582156101bf579182015b828111156101be5782518255916020019190600101906101a3565b5b5090506101cc91906101d0565b5090565b5b808211156101e95760008160009055506001016101d1565b5090565b7f4e487b7100000000000000000000000000000000000000000000000000000000600052602260045260246000fd5b6000600282049050600182168061023457607f821691505b60208210811415610248576102476101ed565b5b50919050565b6109d6806200025e6000396000f3fe608060405234801561001057600080fd5b50600436106100665760003560e01c80631627905514610069578063715018a6146100995780638da5cb5b146100a3578063a4136862146100c1578063cfae3217146100dd578063f2fde38b146100fb57610067565b5b005b610083600480360381019061007e91906105d2565b610117565b604051610090919061061a565b60405180910390f35b6100a161012a565b005b6100ab61013e565b6040516100b89190610644565b60405180910390f35b6100db60048036038101906100d691906106c4565b610167565b005b6100e5610267565b6040516100f291906107aa565b60405180910390f35b610115600480360381019061011091906105d2565b6102f9565b005b600080823b905060008111915050919050565b61013261037d565b61013c60006103fb565b565b60008060009054906101000a900473ffffffffffffffffffffffffffffffffffffffff16905090565b61016f61037d565b60006001805461017e906107fb565b80601f01602080910402602001604051908101604052809291908181526020018280546101aa906107fb565b80156101f75780601f106101cc576101008083540402835291602001916101f7565b820191906000526020600020905b8154815290600101906020018083116101da57829003601f168201915b5050505050905082826001919061020f9291906104c7565b503373ffffffffffffffffffffffffffffffffffffffff167fac23bbf1dfe4fe7c4ec7d5851c97ad91e40e71eba310b5b101902299ce7eeb3382858560405161025a93929190610869565b60405180910390a2505050565b606060018054610276906107fb565b80601f01602080910402602001604051908101604052809291908181526020018280546102a2906107fb565b80156102ef5780601f106102c4576101008083540402835291602001916102ef565b820191906000526020600020905b8154815290600101906020018083116102d257829003601f168201915b5050505050905090565b61030161037d565b600073ffffffffffffffffffffffffffffffffffffffff168173ffffffffffffffffffffffffffffffffffffffff161415610371576040517f08c379a000000000000000000000000000000000000000000000000000000000815260040161036890610914565b60405180910390fd5b61037a816103fb565b50565b6103856104bf565b73ffffffffffffffffffffffffffffffffffffffff166103a361013e565b73ffffffffffffffffffffffffffffffffffffffff16146103f9576040517f08c379a00000000000000000000000000000000000000000000000000000000081526004016103f090610980565b60405180910390fd5b565b60008060009054906101000a900473ffffffffffffffffffffffffffffffffffffffff169050816000806101000a81548173ffffffffffffffffffffffffffffffffffffffff021916908373ffffffffffffffffffffffffffffffffffffffff1602179055508173ffffffffffffffffffffffffffffffffffffffff168173ffffffffffffffffffffffffffffffffffffffff167f8be0079c531659141344cd1fd0a4f28419497f9722a3daafe3b4186f6b6457e060405160405180910390a35050565b600033905090565b8280546104d3906107fb565b90600052602060002090601f0160209004810192826104f5576000855561053c565b82601f1061050e57803560ff191683800117855561053c565b8280016001018555821561053c579182015b8281111561053b578235825591602001919060010190610520565b5b509050610549919061054d565b5090565b5b8082111561056657600081600090555060010161054e565b5090565b600080fd5b600080fd5b600073ffffffffffffffffffffffffffffffffffffffff82169050919050565b600061059f82610574565b9050919050565b6105af81610594565b81146105ba57600080fd5b50565b6000813590506105cc816105a6565b92915050565b6000602082840312156105e8576105e761056a565b5b60006105f6848285016105bd565b91505092915050565b60008115159050919050565b610614816105ff565b82525050565b600060208201905061062f600083018461060b565b92915050565b61063e81610594565b82525050565b60006020820190506106596000830184610635565b92915050565b600080fd5b600080fd5b600080fd5b60008083601f8401126106845761068361065f565b5b8235905067ffffffffffffffff8111156106a1576106a0610664565b5b6020830191508360018202830111156106bd576106bc610669565b5b9250929050565b600080602083850312156106db576106da61056a565b5b600083013567ffffffffffffffff8111156106f9576106f861056f565b5b6107058582860161066e565b92509250509250929050565b600081519050919050565b600082825260208201905092915050565b60005b8381101561074b578082015181840152602081019050610730565b8381111561075a576000848401525b50505050565b6000601f19601f8301169050919050565b600061077c82610711565b610786818561071c565b935061079681856020860161072d565b61079f81610760565b840191505092915050565b600060208201905081810360008301526107c48184610771565b905092915050565b7f4e487b7100000000000000000000000000000000000000000000000000000000600052602260045260246000fd5b6000600282049050600182168061081357607f821691505b60208210811415610827576108266107cc565b5b50919050565b82818337600083830152505050565b6000610848838561071c565b935061085583858461082d565b61085e83610760565b840190509392505050565b600060408201905081810360008301526108838186610771565b9050818103602083015261089881848661083c565b9050949350505050565b7f4f776e61626c653a206e6577206f776e657220697320746865207a65726f206160008201527f6464726573730000000000000000000000000000000000000000000000000000602082015250565b60006108fe60268361071c565b9150610909826108a2565b604082019050919050565b6000602082019050818103600083015261092d816108f1565b9050919050565b7f4f776e61626c653a2063616c6c6572206973206e6f7420746865206f776e6572600082015250565b600061096a60208361071c565b915061097582610934565b602082019050919050565b600060208201905081810360008301526109998161095d565b905091905056fea264697066735822122014c97fd410fedfacea9e60afd4c6c30024767c53f7448d0d524ff4a6c5c0747c64736f6c634300080a0033",
  "immutableReferences": {},
  "source": "// SPDX-License-Identifier: MIT\npragma solidity >=0.4.16 <0.9.0;\n\n// Import Ownable from the OpenZeppelin Contracts library\nimport \"@openzeppelin/contracts/access/Ownable.sol\";\n\ncontract Greeter is Ownable {\n    string private _greeting = \"Hello, World!\";\n\n    event GreetingUpdated(\n        address indexed writer,\n        string oldGreeting,\n        string newGreeting\n    );\n\n    function greet() external view returns (string memory) {\n        return _greeting;\n    }\n\n    function setGreeting(string calldata greeting) external onlyOwner {\n        string memory oldGreeting = _greeting;\n        _greeting = greeting;\n        emit GreetingUpdated(msg.sender, oldGreeting, greeting);\n    }\n\n    fallback() external {\n        // dont receive ether via fallback method (by not having 'payable' modifier on this function).\n    }\n\n    function isContract(address a) public view returns (bool) {\n        uint256 size;\n        assembly {\n            size := extcodesize(a)\n        }\n        return size > 0;\n    }\n\n    // function kill() external onlyOwner {\n    //     selfdestruct(payable(owner()));\n    // }\n}\n",
  "sourcePath": "/Users/jsie/github/trendev/greeting/backend/contracts/Greeter.sol",
  "compiler": {
    "name": "solc",
    "version": "0.8.10+commit.fc410830.Emscripten.clang"
  },
  "schemaVersion": "3.4.16",
  "updatedAt": "2024-03-23T15:23:43.792Z",
  "devdoc": {
    "kind": "dev",
    "methods": {
      "owner()": {
        "details": "Returns the address of the current owner."
      },
      "renounceOwnership()": {
        "details": "Leaves the contract without owner. It will not be possible to call `onlyOwner` functions. Can only be called by the current owner. NOTE: Renouncing ownership will leave the contract without an owner, thereby disabling any functionality that is only available to the owner."
      },
      "transferOwnership(address)": {
        "details": "Transfers ownership of the contract to a new account (`newOwner`). Can only be called by the current owner."
      }
    },
    "version": 1
  },
  "userdoc": {
    "kind": "user",
    "methods": {},
    "version": 1
  }
}