{
  "contractName": "Greeter",
  "abi": [
    {
      "anonymous": false,
      "inputs": [
        {
          "indexed": true,
          "internalType": "address",
          "name": "writer",
          "type": "address"
        },
        {
          "indexed": false,
          "internalType": "string",
          "name": "oldGreeting",
          "type": "string"
        },
        {
          "indexed": false,
          "internalType": "string",
          "name": "newGreeting",
          "type": "string"
        }
      ],
      "name": "GreetingUpdated",
      "type": "event"
    },
    {
      "anonymous": false,
      "inputs": [
        {
          "indexed": true,
          "internalType": "address",
          "name": "previousOwner",
          "type": "address"
        },
        {
          "indexed": true,
          "internalType": "address",
          "name": "newOwner",
          "type": "address"
        }
      ],
      "name": "OwnershipTransferred",
      "type": "event"
    },
    {
      "stateMutability": "nonpayable",
      "type": "fallback"
    },
    {
      "inputs": [],
      "name": "owner",
      "outputs": [
        {
          "internalType": "address",
          "name": "",
          "type": "address"
        }
      ],
      "stateMutability": "view",
      "type": "function",
      "constant": true
    },
    {
      "inputs": [],
      "name": "renounceOwnership",
      "outputs": [],
      "stateMutability": "nonpayable",
      "type": "function"
    },
    {
      "inputs": [
        {
          "internalType": "address",
          "name": "newOwner",
          "type": "address"
        }
      ],
      "name": "transferOwnership",
      "outputs": [],
      "stateMutability": "nonpayable",
      "type": "function"
    },
    {
      "inputs": [],
      "name": "greet",
      "outputs": [
        {
          "internalType": "string",
          "name": "",
          "type": "string"
        }
      ],
      "stateMutability": "view",
      "type": "function",
      "constant": true
    },
    {
      "inputs": [
        {
          "internalType": "string",
          "name": "greeting",
          "type": "string"
        }
      ],
      "name": "setGreeting",
      "outputs": [],
      "stateMutability": "nonpayable",
      "type": "function"
    },
    {
      "inputs": [
        {
          "internalType": "address",
          "name": "a",
          "type": "address"
        }
      ],
      "name": "isContract",
      "outputs": [
        {
          "internalType": "bool",
          "name": "",
          "type": "bool"
        }
      ],
      "stateMutability": "view",
      "type": "function",
      "constant": true
    },
    {
      "inputs": [],
      "name": "kill",
      "outputs": [],
      "stateMutability": "nonpayable",
      "type": "function"
    }
  ],
  "bytecode": "0x60806040526040518060400160405280600d81526020017f48656c6c6f2c20576f726c642100000000000000000000000000000000000000815250600190805190602001906200005192919062000152565b503480156200005f57600080fd5b5062000080620000746200008660201b60201c565b6200008e60201b60201c565b62000267565b600033905090565b60008060009054906101000a900473ffffffffffffffffffffffffffffffffffffffff169050816000806101000a81548173ffffffffffffffffffffffffffffffffffffffff021916908373ffffffffffffffffffffffffffffffffffffffff1602179055508173ffffffffffffffffffffffffffffffffffffffff168173ffffffffffffffffffffffffffffffffffffffff167f8be0079c531659141344cd1fd0a4f28419497f9722a3daafe3b4186f6b6457e060405160405180910390a35050565b828054620001609062000231565b90600052602060002090601f016020900481019282620001845760008555620001d0565b82601f106200019f57805160ff1916838001178555620001d0565b82800160010185558215620001d0579182015b82811115620001cf578251825591602001919060010190620001b2565b5b509050620001df9190620001e3565b5090565b5b80821115620001fe576000816000905550600101620001e4565b5090565b7f4e487b7100000000000000000000000000000000000000000000000000000000600052602260045260246000fd5b600060028204905060018216806200024a57607f821691505b6020821081141562000261576200026062000202565b5b50919050565b610b7580620002776000396000f3fe608060405234801561001057600080fd5b50600436106100815760003560e01c80638da5cb5b1161005b5780638da5cb5b146100c8578063a4136862146100e6578063cfae321714610102578063f2fde38b1461012057610082565b8063162790551461008457806341c0e1b5146100b4578063715018a6146100be57610082565b5b005b61009e60048036038101906100999190610771565b61013c565b6040516100ab91906107b9565b60405180910390f35b6100bc61014f565b005b6100c66101eb565b005b6100d0610273565b6040516100dd91906107e3565b60405180910390f35b61010060048036038101906100fb9190610863565b61029c565b005b61010a610410565b6040516101179190610949565b60405180910390f35b61013a60048036038101906101359190610771565b6104a2565b005b600080823b905060008111915050919050565b61015761059a565b73ffffffffffffffffffffffffffffffffffffffff16610175610273565b73ffffffffffffffffffffffffffffffffffffffff16146101cb576040517f08c379a00000000000000000000000000000000000000000000000000000000081526004016101c2906109b7565b60405180910390fd5b6101d3610273565b73ffffffffffffffffffffffffffffffffffffffff16ff5b6101f361059a565b73ffffffffffffffffffffffffffffffffffffffff16610211610273565b73ffffffffffffffffffffffffffffffffffffffff1614610267576040517f08c379a000000000000000000000000000000000000000000000000000000000815260040161025e906109b7565b60405180910390fd5b61027160006105a2565b565b60008060009054906101000a900473ffffffffffffffffffffffffffffffffffffffff16905090565b6102a461059a565b73ffffffffffffffffffffffffffffffffffffffff166102c2610273565b73ffffffffffffffffffffffffffffffffffffffff1614610318576040517f08c379a000000000000000000000000000000000000000000000000000000000815260040161030f906109b7565b60405180910390fd5b60006001805461032790610a06565b80601f016020809104026020016040519081016040528092919081815260200182805461035390610a06565b80156103a05780601f10610375576101008083540402835291602001916103a0565b820191906000526020600020905b81548152906001019060200180831161038357829003601f168201915b505050505090508282600191906103b8929190610666565b503373ffffffffffffffffffffffffffffffffffffffff167fac23bbf1dfe4fe7c4ec7d5851c97ad91e40e71eba310b5b101902299ce7eeb3382858560405161040393929190610a74565b60405180910390a2505050565b60606001805461041f90610a06565b80601f016020809104026020016040519081016040528092919081815260200182805461044b90610a06565b80156104985780601f1061046d57610100808354040283529160200191610498565b820191906000526020600020905b81548152906001019060200180831161047b57829003601f168201915b5050505050905090565b6104aa61059a565b73ffffffffffffffffffffffffffffffffffffffff166104c8610273565b73ffffffffffffffffffffffffffffffffffffffff161461051e576040517f08c379a0000000000000000000000000000000000000000000000000000000008152600401610515906109b7565b60405180910390fd5b600073ffffffffffffffffffffffffffffffffffffffff168173ffffffffffffffffffffffffffffffffffffffff16141561058e576040517f08c379a000000000000000000000000000000000000000000000000000000000815260040161058590610b1f565b60405180910390fd5b610597816105a2565b50565b600033905090565b60008060009054906101000a900473ffffffffffffffffffffffffffffffffffffffff169050816000806101000a81548173ffffffffffffffffffffffffffffffffffffffff021916908373ffffffffffffffffffffffffffffffffffffffff1602179055508173ffffffffffffffffffffffffffffffffffffffff168173ffffffffffffffffffffffffffffffffffffffff167f8be0079c531659141344cd1fd0a4f28419497f9722a3daafe3b4186f6b6457e060405160405180910390a35050565b82805461067290610a06565b90600052602060002090601f01602090048101928261069457600085556106db565b82601f106106ad57803560ff19168380011785556106db565b828001600101855582156106db579182015b828111156106da5782358255916020019190600101906106bf565b5b5090506106e891906106ec565b5090565b5b808211156107055760008160009055506001016106ed565b5090565b600080fd5b600080fd5b600073ffffffffffffffffffffffffffffffffffffffff82169050919050565b600061073e82610713565b9050919050565b61074e81610733565b811461075957600080fd5b50565b60008135905061076b81610745565b92915050565b60006020828403121561078757610786610709565b5b60006107958482850161075c565b91505092915050565b60008115159050919050565b6107b38161079e565b82525050565b60006020820190506107ce60008301846107aa565b92915050565b6107dd81610733565b82525050565b60006020820190506107f860008301846107d4565b92915050565b600080fd5b600080fd5b600080fd5b60008083601f840112610823576108226107fe565b5b8235905067ffffffffffffffff8111156108405761083f610803565b5b60208301915083600182028301111561085c5761085b610808565b5b9250929050565b6000806020838503121561087a57610879610709565b5b600083013567ffffffffffffffff8111156108985761089761070e565b5b6108a48582860161080d565b92509250509250929050565b600081519050919050565b600082825260208201905092915050565b60005b838110156108ea5780820151818401526020810190506108cf565b838111156108f9576000848401525b50505050565b6000601f19601f8301169050919050565b600061091b826108b0565b61092581856108bb565b93506109358185602086016108cc565b61093e816108ff565b840191505092915050565b600060208201905081810360008301526109638184610910565b905092915050565b7f4f776e61626c653a2063616c6c6572206973206e6f7420746865206f776e6572600082015250565b60006109a16020836108bb565b91506109ac8261096b565b602082019050919050565b600060208201905081810360008301526109d081610994565b9050919050565b7f4e487b7100000000000000000000000000000000000000000000000000000000600052602260045260246000fd5b60006002820490506001821680610a1e57607f821691505b60208210811415610a3257610a316109d7565b5b50919050565b82818337600083830152505050565b6000610a5383856108bb565b9350610a60838584610a38565b610a69836108ff565b840190509392505050565b60006040820190508181036000830152610a8e8186610910565b90508181036020830152610aa3818486610a47565b9050949350505050565b7f4f776e61626c653a206e6577206f776e657220697320746865207a65726f206160008201527f6464726573730000000000000000000000000000000000000000000000000000602082015250565b6000610b096026836108bb565b9150610b1482610aad565b604082019050919050565b60006020820190508181036000830152610b3881610afc565b905091905056fea264697066735822122064f2c2f965f2d83debb1e33a321a1f7c1de77f75d02ab2cf9de9fae5e504e71964736f6c634300080a0033",
  "immutableReferences": {},
  "source": "// SPDX-License-Identifier: MIT\npragma solidity >=0.4.16 <0.9.0;\n\n// Import Ownable from the OpenZeppelin Contracts library\nimport \"@openzeppelin/contracts/access/Ownable.sol\";\n\ncontract Greeter is Ownable {\n    string private _greeting = \"Hello, World!\";\n\n    event GreetingUpdated(\n        address indexed writer,\n        string oldGreeting,\n        string newGreeting\n    );\n\n    function greet() external view returns (string memory) {\n        return _greeting;\n    }\n\n    function setGreeting(string calldata greeting) external onlyOwner {\n        string memory oldGreeting = _greeting;\n        _greeting = greeting;\n        emit GreetingUpdated(msg.sender, oldGreeting, greeting);\n    }\n\n    fallback() external {\n        // dont receive ether via fallback method (by not having 'payable' modifier on this function).\n    }\n\n    function isContract(address a) public view returns (bool) {\n        uint256 size;\n        assembly {\n            size := extcodesize(a)\n        }\n        return size > 0;\n    }\n\n    function kill() external onlyOwner {\n        selfdestruct(payable(owner()));\n    }\n}\n",
  "sourcePath": "/Users/jsie/github/greeting/backend/contracts/Greeter.sol",
  "compiler": {
    "name": "solc",
    "version": "0.8.10+commit.fc410830.Emscripten.clang"
  },
  "schemaVersion": "3.4.4",
  "updatedAt": "2022-01-14T16:14:40.563Z",
  "networkType": "ethereum",
  "devdoc": {
    "kind": "dev",
    "methods": {
      "owner()": {
        "details": "Returns the address of the current owner."
      },
      "renounceOwnership()": {
        "details": "Leaves the contract without owner. It will not be possible to call `onlyOwner` functions anymore. Can only be called by the current owner. NOTE: Renouncing ownership will leave the contract without an owner, thereby removing any functionality that is only available to the owner."
      },
      "transferOwnership(address)": {
        "details": "Transfers ownership of the contract to a new account (`newOwner`). Can only be called by the current owner."
      }
    },
    "version": 1
  },
  "userdoc": {
    "kind": "user",
    "methods": {},
    "version": 1
  }
}